:100000000C9463000C948B000C948B000C948B006C
:100010000C948B000C948B000C948B000C94DB01E3
:100020000C948B000C948B000C948B000C948B0024
:100030000C948B000C948B000C948B000C948B0014
:100040000C947C0B0C948B000C94A4090C94D60992
:100050000C948B000C948B000C948B000C948B00F4
:100060000C948B000C948B0000000008000201002F
:100070000003040700000000000000000102040863
:100080001020408001020408102001020408102002
:10009000040404040404040402020202020203032E
:1000A00003030303000000002300260029000000D2
:1000B0000000250028002B0000000000240027007D
:1000C0002A007501060A11241FBECFEFD8E0DEBF5B
:1000D000CDBF11E0A0E0B1E0E8E7F0E202C005909A
:1000E0000D92AA33B107D9F722E0AAE3B1E001C02B
:1000F0001D92AD3BB207E1F710E0C3E6D0E004C0CB
:100100002197FE010E94EC0DC136D107C9F70E946C
:100110006D0B0C943A100C94000061E08DE00E948D
:10012000E50C26E040E855E260E070E087E192E00F
:100130000E94420988E491E00C94C40120910001DE
:100140003091010122303105D9F123303105F1F12F
:100150002130310529F490910401890F8093040125
:100160006091040170E089E00E945F0C60910301DE
:1001700070E08AE00E945F0C6091020170E08BE009
:100180000E945F0C65E071E087E192E00E94820AC4
:100190004AE050E06091040187E192E00E945A0B2E
:1001A0004AE050E06091030187E192E00E945A0B1F
:1001B0004AE050E06091020187E192E00C945A0B12
:1001C00090910301890F80930301CACF909102019E
:1001D000890F80930201C4CF6AE371E088E491E063
:1001E0000E94FE07892B41F163E171E087E192E013
:1001F0000E946F0A40913E0150913F016091400181
:100200007091410120E130E087E192E00E94460BCD
:100210006CE171E087E192E00E946F0A6091420117
:10022000709143014AE050E087E192E00E94340B74
:1002300088E491E00E947A0268E572E080E090E054
:100240000E94EB0B80913E0190913F01A0914001F3
:10025000B091410185382AE792072FEFA207B10537
:10026000C9F170F4873E28E192072FEFA207B1058C
:1002700071F18F3C9043AF4FB105D1F060E014C0F5
:10028000873528EA92072FEFA207B10531F18F31A8
:1002900020EE92072FEFA207B10521F18D35924A8A
:1002A000AF4FB10559F761E08DE00E94210D06C006
:1002B00081E090E0909301018093000110923E0153
:1002C00010923F011092400110924101089582E086
:1002D00090E0F0CF83E090E0EDCF82E390E00E94E9
:1002E0009E00ECCF8EEC9FEFFACF67E070E088E4E1
:1002F00091E00C94BF01CF92DF92EF92FF92CF93E7
:10030000DF93EC01072E000C880B990B0E941D0F48
:100310006B017C0120E030E040E45FE30E94CD0F00
:1003200020E030E048E452E40E94730E0E94E50EA3
:10033000C617D707D4F020E030E040EA5FE3C701FA
:10034000B6010E94CD0F20E030E048E452E40E9464
:10035000730E20E030E040E85FE30E94020E0E944E
:10036000E50E21E06C177D070CF420E0822F90E071
:10037000DF91CF91FF90EF90DF90CF900895E9E467
:10038000F1E0608312820895F89482E08093B000D7
:100390008093B10094E69093B3001092B2008093E2
:1003A00070007894E9E4F1E0818310921602808174
:1003B00060E00C94E50C1F920F920FB60F9211247F
:1003C0002F933F934F935F936F937F938F939F935D
:1003D000AF93BF93EF93FF93809149010E944F0D1C
:1003E00020914C0130914D012F5F3F4F30934D01D3
:1003F00020934C0190911602943618F095E090935A
:100400004A0190914A01933009F44AC0D0F49230E5
:1004100001F190914B01992319F0811169C02D9A36
:10042000FF91EF91BF91AF919F918F917F916F91CC
:100430005F914F913F912F910F900FBE0F901F90A2
:100440001895943009F448C0953019F78111E1CF1F
:1004500009C08111DECF20914C0130914D0124362D
:10046000310528F410924D0110924C01D2CF109218
:100470001602E091160291E09E0F90931602F0E0B2
:1004800020914C0130914D01EE0FFF1FE75BFE4FB5
:100490003683258310924D0110924C0193E019C0D0
:1004A000813009F0B6CFE091160291E09E0F909353
:1004B0001602F0E020914C0130914D01EE0FFF1F2C
:1004C000E75BFE4F3683258310924D0110924C015D
:1004D00094E090934A019DCF882359F220914C01DA
:1004E00030914D012536310508F493CF95E0F1CFD9
:1004F0002D9896CF82E080934A01109216020895BB
:10050000CF93DF93EB01EA85FB8582819381885845
:1005100091098D35910508F04BC080911602843009
:10052000F1F48481958180974797C8F486819781FB
:1005300009970997A0F4198618868FEF9FEFDC01C1
:100540008C839D83AE83BF8381E090E09983888311
:1005500061E070E080E090E0DF91CF9108958091BC
:100560001602843428F184819581825491098E97F2
:10057000F8F49F012A5F3F4FBF016A577F4F80E029
:1005800090E0DC01F9014081518149505109493025
:10059000510570F442815381465151094131510551
:1005A00058F042815381465051094730510598F027
:1005B00060E070E0CB01D0CF880F991FAA1FBB1F4E
:1005C00081602C5F3F4F62177307E1F620E230E055
:1005D00039872887B5CF880F991FAA1FBB1FF1CF76
:1005E000CF93DF93DB01809116028A3108F44CC06F
:1005F0001A96ED91FC911B9780819181843F9140E7
:10060000C0F419961C921E9218974FEF5FEFBA0133
:1006100014964D935D936D937C93179789E090E0CA
:100620008D939C9361E070E080E090E0DF91CF914A
:1006300008958281938185974B9730F5369682E0B5
:1006400090E040E050E0BA01C09116029C012F5F9B
:100650003F4FC217130649F144F1EF012297288159
:1006600039812750310927303105F8F42081318153
:10067000235131092F30310558F0208131812A5022
:1006800031092930310560F060E070E0CB01CECF58
:10069000440F551F661F771F416002963496D4CFD2
:1006A000440F551F661F771FF8CF019795958795C3
:1006B00019969C938E9318970C972CF419961C926C
:1006C0001E921897E1CF14964D935D936D937C9392
:1006D000179782E090E0A4CFCF93DF93DB01809166
:1006E00016028A3108F451C01A96ED91FC911B97BD
:1006F0008081918180329340C0F419961C921E92A1
:1007000018974FEF5FEFBA0114964D935D936D9379
:100710007C93179789E090E08D939C9361E070E063
:1007200080E090E0DF91CF91089582819381C69718
:10073000869758F584819581C697869730F53896C7
:1007400083E090E040E050E0BA01C09116029C01C5
:100750002F5F3F4FC217130649F144F1EF01229773
:10076000288139812C5031092B303105F8F4208152
:100770003181255231092B31310558F020813181E9
:100780002C5031092A30310560F060E070E0CB0177
:10079000C9CF440F551F661F771F416002963496DC
:1007A000D4CF440F551F661F771FF8CF019795953B
:1007B000879519969C938E9318970C970CF0A4CF5D
:1007C00019961C921E921897E0CFEF92FF920F930A
:1007D0001F93CF93DF93DB0180911602823248F1A1
:1007E0001A96ED91FC911B9782819381069707974A
:1007F00000F5369682E090E040E050E0BA017C01DE
:100800002FEFE21AF20A209116022E151F0451F161
:100810004CF1EF012297088119810E51110907311E
:10082000110558F0288139812C5031092B303105C0
:1008300098F060E070E0CB0131C0440F551F661F97
:10084000771F416020813181349623503109253052
:10085000310538F40296D3CF440F551F661F771F1A
:10086000F1CFC70101979595879519969C938E9323
:10087000189740972CF419961C921E921897D9CF6E
:1008800014964D935D936D937C9317978AE090E057
:100890008D939C9361E070E080E090E0DF91CF91D8
:1008A0001F910F91FF90EF9008958F929F92AF92BA
:1008B000BF92CF92DF92EF92FF920F931F93CF934D
:1008C000DF93DB01FA01808191811C966D917C910F
:1008D0001D97C1E0D0E0861797070CF041C0BC011E
:1008E000660F771F1A96ED91FC91E60FF71FA08017
:1008F000B180EC01C095D095C170DD2780FD22C08C
:100900008CE99FEF69017A014C01800E911EB401C0
:10091000C5010E947B01892BC1F4800E911EB40198
:10092000C5010E947B01892B49F5B401600F711F3D
:10093000C5010E947B0123E030E0892B41F4CFEF19
:10094000DFEF0EC084E690E0DDCF21E030E0F6017D
:10095000808191810196821793079CF49183808313
:10096000CE01DF91CF911F910F91FF90EF90DF901B
:10097000CF90BF90AF909F908F90089522E030E08D
:10098000E6CF11821082F701808191810196E6CF36
:100990004F925F926F927F928F929F92AF92BF928F
:1009A000CF92DF92EF92FF920F931F93CF93DF933B
:1009B00000D000D0CDB7DEB7209116022D30A8F0C0
:1009C0007B016C0181E090E09C838B831A82198209
:1009D00009E713E09E012F5F3F4FAE014D5F5F4F70
:1009E000C6010E945504892B21F060E070E0CB0124
:1009F00068C009E713E09E012F5F3F4FAE014D5FD6
:100A00005F4FB701C6010E945504019771F79E011F
:100A10002F5F3F4FAE014D5F5F4FB701C6010E9490
:100A200055045C01892B09F7412C512C320120918E
:100A300016028B819C8128171906A1F19CF109E708
:100A400013E09E012F5F3F4FAE014D5F5F4FB70137
:100A5000C6010E9455044C019E012F5F3F4FAE011D
:100A60004D5F5F4FB701C6010E94550421E0821619
:100A7000910469F4892B09F0B8CF440C551C661C0D
:100A8000771C689440F88FEFA81AB80AD0CF89284D
:100A900009F0ABCF019709F0A8CF440C551C661C98
:100AA000771CF1CFF701B186A08644825582668219
:100AB000778283E090E09183808361E070E080E062
:100AC00090E00F900F900F900F90DF91CF911F91BA
:100AD0000F91FF90EF90DF90CF90BF90AF909F90DD
:100AE0008F907F906F905F904F9008952F923F92DC
:100AF0004F925F926F927F928F929F92AF92BF922E
:100B0000CF92DF92EF92FF920F931F93CF93DF93D9
:100B100000D000D0CDB7DEB7DB011C962D913C9103
:100B20001D971216130674F421E030E03C832B83EA
:100B30001A96ED91FC9122813381295231092E318F
:100B4000310520F060E070E0CB01A6C022E030E08B
:100B50003C832B83248135812B5031092A30310588
:100B600088F77B016C0183E090E09C838B831A8281
:100B700019820CEB11E09E012F5F3F4FAE014D5FDC
:100B80005F4FC6010E9455045C01892BD9F69E0176
:100B90002F5F3F4FAE014D5F5F4FB701C6010E940F
:100BA0005504019779F6212C312C2101F701248578
:100BB00035858B819C81821793070CF05FC00CEB0D
:100BC00011E09E012F5F3F4FAE014D5F5F4FB701B8
:100BD000C6010E9455043C01F3E0AF16B10481F157
:100BE0000CEB11E09E012F5F3F4FAE014D5F5F4F59
:100BF000B701C6010E9455044C0183E0A816B10458
:100C000081F40CEB11E09E012F5F3F4FAE014D5F71
:100C10005F4FB701C6010E9455048816990609F076
:100C200091CF61147104E1F06A94672809F08ACFCA
:100C3000892809F087CF220C331C441C551C1AC08C
:100C40000CEB11E09E012F5F3F4FAE014D5F5F4FF8
:100C5000B701C6010E9455046816790609F272CFE1
:100C60008A94892809F06ECF220C331C441C551C31
:100C7000689420F8EFEFAE1ABE0A98CFB186A0862E
:100C8000248235824682578284E090E0918380837B
:100C900061E070E080E090E00F900F900F900F9077
:100CA000DF91CF911F910F91FF90EF90DF90CF9048
:100CB000BF90AF909F908F907F906F905F904F907C
:100CC0003F902F9008950F931F93CF93DF93FB01D5
:100CD000C285D3858A819B81C697869758F58C817A
:100CE0009D814B97459730F5DE011696CA53DF4F2D
:100CF00020E030E040E050E060E070E080E090E034
:100D00000D911C911197095011090830110590F4AB
:100D100012960D911C911397015111090D30110577
:100D200068F012960D911C9113970450110905302B
:100D3000110530F160E070E0CB011DC001E00E94C0
:100D4000B60D21601496CA17DB07D1F624833583CC
:100D50004683578300E20E94D10D2283338387E0CC
:100D600090E09183808380E390E09187808761E0C9
:100D700070E080E090E0DF91CF911F910F91089596
:100D800001E00E94B60DDECFCF93DF93EB0180919F
:100D90001602AA85BB85823249F512968D919C91E7
:100DA00013970A97099710F5E0911602F0E0E150C9
:100DB000F048EE0FFF1FEA0FFB1F808191810A9719
:100DC0000997A0F4198618868FEF9FEFDC018C83BA
:100DD0009D83AE83BF8388E090E09983888361E040
:100DE00070E080E090E0DF91CF91089512968D91B0
:100DF0009C911397895791098335910538F5809116
:100E00001602813218F114968D919C911597CA970C
:100E10008997E0F4FD01369683E090E040E050E0F1
:100E2000BA01208131812A5031092930310570F40D
:100E300022813381265131092131310558F0228137
:100E400033812650310927303105F0F060E070E041
:100E5000CB01C9CF440F551F661F771F4160029613
:100E6000349683329105E9F6AA5BBF4F8D919C9130
:100E70000A97099758F780E190E0998788874C8313
:100E80005D836E837F83A7CF440F551F661F771F37
:100E9000E6CF8F929F92AF92BF92CF92DF92EF9266
:100EA000FF92CF93DF93EB01BA0190E080E00E94C4
:100EB0001B0F4B015C01BE0190E080E00E941B0F04
:100EC0006B017C012DEC3CEC4CE45FE30E94CD0F08
:100ED0009B01AC01C501B4010E946E0E87FD1DC0CF
:100EE0002DEC3CEC4CE45FE3C501B4010E94CD0F56
:100EF0009B01AC01C701B6010E946E0E87FD10C0B8
:100F000081E090E0DF91CF91FF90EF90DF90CF9064
:100F1000BF90AF909F908F90089590E080E0F2CFC7
:100F200082E090E0EFCF8F929F92AF92BF92CF92EC
:100F3000DF92EF92FF920F931F93CF93DF93FB010A
:100F4000E484F584F6E0EF16F1040CF453C0EB01F1
:100F50006C01EE0CFF1C95EC892E9DE9992E9CE10D
:100F6000A92E91E8B92E06E010E08A859B85FC0148
:100F7000E00FF11F40815181980124503109820F07
:100F8000931FFC0160817181C6010E944907FC0129
:100F9000A501940163E971E080E091E00E94790D80
:100FA0004F01FF0FAA08BB0886269726A826B92658
:100FB0000E5F1F4F0E151F05C1F68C829D82AE82FB
:100FC000BF8280E290E0998788878FEF9FEF9983B7
:100FD000888361E070E080E090E0DF91CF911F9125
:100FE0000F91FF90EF90DF90CF90BF90AF909F90C8
:100FF0008F90089560E070E0CB01EFCF0F931F93C7
:10100000CF93DF93EB012EE431E03B872A872091D9
:10101000160230E03D872C8720914A01253009F0E7
:1010200054C08C010E948002672B682B692B39F019
:1010300081E090E0DF91CF911F910F910895BE0163
:10104000C8010E94F002672B682B692B89F7BE014B
:10105000C8010E946C03672B682B692B49F7BE01FE
:10106000C8010E94E503672B682B692B09F7BE01B5
:10107000C8010E94C804672B682B692BC9F6BE0102
:10108000C8010E947605672B682B692B89F6BE0183
:10109000C8010E946306672B682B692B49F6BE01C5
:1010A000C8010E94C406672B682B692B09F6BE0194
:1010B000C8010E949307672B682B692B09F0B8CFF2
:1010C00082E080934A011092160290E080E0B2CF55
:1010D000FC01918D228D892F90E0805C9F4F821BB7
:1010E00091098F7399270895FC01918D828D98172E
:1010F00031F0828DE80FF11D858D90E008958FEF1E
:101100009FEF0895FC01918D828D981761F0A28D5B
:10111000AE0FBF2FB11D5D968C91928D9F5F9F7317
:10112000928F90E008958FEF9FEF0895FC01538D0B
:10113000448D252F30E0842F90E0821B930B5417B1
:1011400010F0CF960895019708958CEF99E0892BC0
:1011500049F080E090E0892B29F00E94FC09811180
:101160000C9400000895FC01A48DA80FB92FB11DA7
:10117000A35ABF4F2C91848D90E001968F739927CD
:10118000848FA689B7892C93A089B1898C918370AB
:1011900080648C93938D848D981306C00288F389A4
:1011A000E02D80818F7D80830895CF93DF93EC01C4
:1011B000888D8823B9F0AA89BB89E889F9898C913F
:1011C00085FD03C0808186FD0DC00FB607FCF7CFFB
:1011D0008C9185FFF2CF808185FFEDCFCE010E94FB
:1011E000B308E9CFDF91CF910895EF92FF920F936B
:1011F0001F93CF93DF93EC0181E0888F9B8D8C8DC3
:1012000098131AC0E889F989808185FF15C09FB7B6
:10121000F894EE89FF896083E889F9898081837079
:10122000806480839FBF81E090E0DF91CF911F9128
:101230000F91FF90EF900895F62E0B8D10E00F5F49
:101240001F4F0F731127E02E8C8D8E110CC00FB61F
:1012500007FCFACFE889F989808185FFF5CFCE01B7
:101260000E94B308F1CFEB8DEC0FFD2FF11DE35A77
:10127000FF4FF0829FB7F8940B8FEA89FB8980813A
:101280008062CFCFCF92DF92EF92FF921F93CF93E6
:10129000DF93EC016A017B01122FE889F98982E072
:1012A0008083C11481EED806E104F104A1F060E06E
:1012B00079E08DE390E0A70196010E94890D21500D
:1012C00031094109510956954795379527952115BB
:1012D00080E1380798F0E889F989108260E874E8BD
:1012E0008EE190E0A70196010E94890D21503109FD
:1012F000410951095695479537952795EC85FD8508
:101300003083EE85FF852083188EEC89FD8910835C
:10131000EA89FB89808180618083EA89FB898081F9
:1013200088608083EA89FB89808180688083EA897C
:10133000FB8980818F7D8083DF91CF911F91FF900A
:10134000EF90DF90CF9008951F920F920FB60F92FB
:1013500011242F938F939F93EF93FF93E091270294
:10136000F09128028081E0912D02F0912E0282FD01
:101370001BC09081809130028F5F8F73209131026A
:10138000821741F0E0913002F0E0E95EFD4F958F69
:1013900080933002FF91EF919F918F912F910F9049
:1013A0000FBE0F901F9018958081F4CF1F920F925F
:1013B0000FB60F9211242F933F934F935F936F9328
:1013C0007F938F939F93AF93BF93EF93FF9387E1A7
:1013D00092E00E94B308FF91EF91BF91AF919F916E
:1013E0008F917F916F915F914F913F912F910F90CE
:1013F0000FBE0F901F90189587E192E00E94680839
:1014000021E0892B09F420E0822F0895E7E1F2E042
:101410001382128288EE93E0A0E0B0E0848395838B
:10142000A683B78389E291E09183808385EC90E085
:101430009587848784EC90E09787868780EC90E09E
:10144000918B808B81EC90E0938B828B82EC90E08F
:10145000958B848B86EC90E0978B868B118E128E09
:10146000138E148E0895AF92BF92CF92DF92EF92B7
:10147000FF920F931F93CF93DF936C017B018B013E
:10148000040F151FEB015E01AE18BF08C017D1078E
:1014900059F06991D601ED91FC910190F081E02D18
:1014A000C6010995892B79F7C501DF91CF911F916D
:1014B0000F91FF90EF90DF90CF90BF90AF90089585
:1014C000FB0101900020E9F73197AF01461B570B54
:1014D000DC01ED91FC910280F381E02D099461150E
:1014E000710511F00C94600A90E080E00895DC0131
:1014F000ED91FC910190F081E02D099467E371E09A
:101500000C94600A0F931F93CF93DF938C01D0E06C
:10151000C0E06115710519F00E94600AEC01C80174
:101520000E947E0A8C0F9D1FDF91CF911F910F911A
:1015300008958F929F92AF92BF92EF92FF920F9376
:101540001F93CF93DF93CDB7DEB7A1970FB6F89473
:10155000DEBF0FBECDBF7C01FA01CB0119A2223044
:1015600008F42AE08E010F5D1F4F822E912CB12CC2
:10157000A12CBF01A50194010E94890DF901CA01A6
:101580006A300CF5605DD8016E938D01232B242BFE
:10159000252B79F790E080E0109721F0BD01C7017D
:1015A0000E94600AA1960FB6F894DEBF0FBECDBFB1
:1015B000DF91CF911F910F91FF90EF90BF90AF906F
:1015C0009F908F900895695CDECFCF92DF92EF926B
:1015D000FF920F931F93CF93DF932115310581F471
:1015E000DC01ED91FC910190F081E02D642FDF9101
:1015F000CF911F910F91FF90EF90DF90CF900994C2
:101600002A30310501F52AE077FF1DC06A017B0110
:10161000EC016DE20E94770A8C0144275527BA013C
:101620004C195D096E097F092AE0CE010E94990AD2
:10163000800F911FDF91CF911F910F91FF90EF903D
:10164000DF90CF900895DF91CF911F910F91FF9080
:10165000EF90DF90CF900C94990A9A01AB01770F2D
:10166000660B770B0C94E50A0F931F93CF93DF93D0
:10167000EC010E942D0B8C01CE010E947E0A800F8E
:10168000911FDF91CF911F910F9108952115310581
:1016900041F4DC01ED91FC910190F081E02D642F8B
:1016A00009940C94990A9A01462F50E070E060E08A
:1016B0000C94460B0F931F93CF93DF93EC010E9482
:1016C000530B8C01CE010E947E0A800F911FDF9187
:1016D000CF911F910F91089508950E94240C0E94AC
:1016E0006C0B0E948D00C5EAD8E00E94EC002097A8
:1016F000E1F30E94A508F9CF1F920F920FB60F9247
:1017000011242F933F938F939F93AF93BF93809117
:10171000B5029091B602A091B702B091B802309193
:10172000B40223E0230F2D3758F50196A11DB11DFA
:101730002093B4028093B5029093B602A093B702AF
:10174000B093B8028091B9029091BA02A091BB0205
:10175000B091BC020196A11DB11D8093B902909376
:10176000BA02A093BB02B093BC02BF91AF919F910C
:101770008F913F912F910F900FBE0F901F90189552
:1017800026E8230F0296A11DB11DD2CF3FB7F894D2
:101790008091B9029091BA02A091BB02B091BC02B3
:1017A00026B5A89B05C02F3F19F00196A11DB11DBC
:1017B0003FBFBA2FA92F982F8827BC01CD01620FF8
:1017C000711D811D911D42E0660F771F881F991FB3
:1017D0004A95D1F708958F929F92AF92BF92CF9280
:1017E000DF92EF92FF926B017C010E94C60B4B01CE
:1017F0005C01C114D104E104F104E9F00E94780D08
:101800000E94C60B681979098A099B09683E7340D2
:101810008105910570F321E0C21AD108E108F108B1
:1018200088EE880E83E0981EA11CB11CC114D1045F
:10183000E104F10429F7FF90EF90DF90CF90BF9083
:10184000AF909F908F900895789484B5826084BD06
:1018500084B5816084BD85B5826085BD85B58160B4
:1018600085BDEEE6F0E0808181608083E1E8F0E014
:101870001082808182608083808181608083E0E843
:10188000F0E0808181608083E1EBF0E08081846022
:101890008083E0EBF0E0808181608083EAE7F0E024
:1018A0008081846080838081826080838081816088
:1018B00080838081806880831092C10008951F9387
:1018C000CF93DF93182FEB0161E00E94E50C209786
:1018D00039F460E0812FDF91CF911F910C94210D9D
:1018E000CF3FD10511F461E0F5CFE12FF0E0E859E9
:1018F000FF4FE491E33031F140F4E130B1F0E230F8
:10190000E1F0C038D1057CF7E4CFE73029F1E830C9
:1019100059F1E430B1F780918000806280938000BB
:10192000D0938B00C0938A0004C084B5806884BDC6
:10193000C7BDDF91CF911F91089584B5806284BDAA
:10194000C8BDF7CF80918000806880938000D093DD
:101950008900C0938800EDCF8091B00080688093AB
:10196000B000C093B300E5CF8091B0008062809357
:10197000B000C093B400DDCF833081F028F4813013
:1019800099F08230A9F008958730A9F08830C9F025
:101990008430B1F4809180008F7D03C080918000FD
:1019A0008F7780938000089584B58F7784BD0895E4
:1019B00084B58F7DFBCF8091B0008F778093B0008E
:1019C00008958091B0008F7DF9CFCF93DF9390E0A1
:1019D000FC01E458FF4F249180579F4FFC018491F4
:1019E0008823C9F090E0880F991FFC01E854FF4F4D
:1019F000A591B491FC01E255FF4FC591D4916111BD
:101A00000DC09FB7F8948C91209582238C93888188
:101A1000282328839FBFDF91CF910895623051F42E
:101A20009FB7F8943C91822F809583238C93E88113
:101A30002E2BEFCF8FB7F894EC912E2B2C938FBFDA
:101A4000EACF1F93CF93DF93282F30E0F901E859B5
:101A5000FF4F8491F901E458FF4FD491F901E05709
:101A6000FF4FC491CC23A9F0162F81110E94BC0C0A
:101A7000EC2FF0E0EE0FFF1FE255FF4FA591B49160
:101A80008FB7F894EC91111108C0D095DE23DC9348
:101A90008FBFDF91CF911F910895DE2BF8CFCF93A9
:101AA000DF93282F30E0F901E859FF4F8491F901C5
:101AB000E458FF4FD491F901E057FF4FC491CC2374
:101AC000A1F081110E94BC0CEC2FF0E0EE0FFF1F83
:101AD000EC55FF4FA591B491EC91ED2381E090E09E
:101AE00009F480E0DF91CF91089580E090E0FACF93
:101AF0000895DB018F939F930E94AB0DBF91AF912F
:101B0000A29F800D911DA39F900DB29F900D112457
:101B10000895A1E21A2EAA1BBB1BFD010DC0AA1F2E
:101B2000BB1FEE1FFF1FA217B307E407F50720F046
:101B3000A21BB30BE40BF50B661F771F881F991FC1
:101B40001A9469F760957095809590959B01AC010A
:101B5000BD01CF0108950E94F20DA59F900DB49F85
:101B6000900DA49F800D911D11240895002E083022
:101B700090F0982F872F762F652F542F432F322FD9
:101B800022270850F4CF220F331F441F551F661F12
:101B9000771F881F991F0A95B2F7002D089597FDAA
:101BA0001094002E083098F00850232F342F452F22
:101BB000562F672F782F892F912DF4CF1594979555
:101BC00087957795679557954795379527950A9502
:101BD000AAF71124002D0895EE0FFF1F0590F49130
:101BE000E02D0994A29FB001B39FC001A39F700D87
:101BF000811D1124911DB29F700D811D1124911D15
:101C000008955058BB27AA270E94190E0C94930FD1
:101C10000E94850F38F00E948C0F20F039F49F3F0E
:101C200019F426F40C94820F0EF4E095E7FB0C9463
:101C30007C0FE92F0E94A40F58F3BA1762077307AD
:101C40008407950720F079F4A6F50C94C60F0EF4DE
:101C5000E0950B2EBA2FA02D0B01B90190010C01BC
:101C6000CA01A0011124FF27591B99F0593F50F4D4
:101C7000503E68F11A16F040A22F232F342F44272C
:101C8000585FF3CF469537952795A795F040539524
:101C9000C9F77EF41F16BA0B620B730B840BBAF0F4
:101CA0009150A1F0FF0FBB1F661F771F881FC2F75F
:101CB0000EC0BA0F621F731F841F48F48795779573
:101CC0006795B795F7959E3F08F0B0CF9395880F2D
:101CD00008F09927EE0F9795879508950E94580F61
:101CE00008F481E008950E94870E0C94930F0E94DF
:101CF0008C0F58F00E94850F40F029F45F3F29F0C7
:101D00000C947C0F51110C94C70F0C94820F0E94FD
:101D1000A40F68F39923B1F3552391F3951B550B49
:101D2000BB27AA2762177307840738F09F5F5F4FAE
:101D3000220F331F441FAA1FA9F335D00E2E3AF0ED
:101D4000E0E832D091505040E695001CCAF72BD005
:101D5000FE2F29D0660F771F881FBB1F2617370756
:101D60004807AB07B0E809F0BB0B802DBF01FF2788
:101D700093585F4F3AF09E3F510578F00C947C0FDA
:101D80000C94C70F5F3FE4F3983ED4F386957795A4
:101D90006795B795F7959F5FC9F7880F911D969541
:101DA000879597F90895E1E0660F771F881FBB1F9D
:101DB000621773078407BA0720F0621B730B840B4A
:101DC000BA0BEE1F88F7E09508950E94EC0E689418
:101DD000B1110C94C70F08950E94AC0F88F09F5763
:101DE00098F0B92F9927B751B0F0E1F0660F771F3F
:101DF000881F991F1AF0BA95C9F714C0B13091F035
:101E00000E94C60FB1E008950C94C60F672F782F7B
:101E10008827B85F39F0B93FCCF3869577956795F9
:101E2000B395D9F73EF490958095709561957F4F65
:101E30008F4F9F4F0895E89409C097FB3EF490950B
:101E40008095709561957F4F8F4F9F4F9923A9F093
:101E5000F92F96E9BB279395F69587957795679522
:101E6000B795F111F8CFFAF4BB0F11F460FF1BC066
:101E70006F5F7F4F8F4F9F4F16C0882311F096E9F9
:101E800011C0772321F09EE8872F762F05C06623A7
:101E900071F096E8862F70E060E02AF09A95660F60
:101EA000771F881FDAF7880F9695879597F9089519
:101EB000990F0008550FAA0BE0E8FEEF161617065B
:101EC000E807F907C0F012161306E407F50798F0C3
:101ED000621B730B840B950B39F40A2661F0232BDC
:101EE000242B252B21F408950A2609F4A140A69558
:101EF0008FEF811D811D089597F99F6780E870E03D
:101F000060E008959FEF80EC089500240A9416166F
:101F1000170618060906089500240A9412161306D7
:101F2000140605060895092E0394000C11F4882365
:101F300052F0BB0F40F4BF2B11F460FF04C06F5F81
:101F40007F4F8F4F9F4F089557FD9058440F551F57
:101F500059F05F3F71F04795880F97FB991F61F02B
:101F60009F3F79F087950895121613061406551FA2
:101F7000F2CF4695F1DF08C0161617061806991F0E
:101F8000F1CF86957105610508940895E894BB2703
:101F900066277727CB0197F908950E94E00F0C94EC
:101FA000930F0E94850F38F00E948C0F20F095232C
:101FB00011F00C947C0F0C94820F11240C94C70F19
:101FC0000E94A40F70F3959FC1F3950F50E0551F29
:101FD000629FF001729FBB27F00DB11D639FAA277E
:101FE000F00DB11DAA1F649F6627B00DA11D661FCD
:101FF000829F2227B00DA11D621F739FB00DA11DEE
:10200000621F839FA00D611D221F749F3327A00DA7
:10201000611D231F849F600D211D822F762F6A2F43
:1020200011249F5750409AF0F1F088234AF0EE0FA8
:10203000FF1FBB1F661F771F881F91505040A9F7D5
:102040009E3F510580F00C947C0F0C94C70F5F3FAE
:10205000E4F3983ED4F3869577956795B795F79511
:10206000E7959F5FC1F7FE2B880F911D9695879589
:0820700097F90895F894FFCFE1
:102078000100FFFFFF63757272656E7420636F6CF9
:102088006F72006972436F64653A20002C206269A0
:1020980074733A200000000000F508330A9608D54A
:0A20A800086808820874080D0A0099
:00000001FF
